{
  "contractName": "passaporteCovid",
  "abi": [
    {
      "inputs": [],
      "payable": false,
      "stateMutability": "nonpayable",
      "type": "constructor"
    },
    {
      "constant": true,
      "inputs": [],
      "name": "totalPrimeiraDose",
      "outputs": [
        {
          "internalType": "uint32",
          "name": "",
          "type": "uint32"
        }
      ],
      "payable": false,
      "stateMutability": "view",
      "type": "function"
    },
    {
      "constant": true,
      "inputs": [],
      "name": "totalSegundaDose",
      "outputs": [
        {
          "internalType": "uint32",
          "name": "",
          "type": "uint32"
        }
      ],
      "payable": false,
      "stateMutability": "view",
      "type": "function"
    },
    {
      "constant": false,
      "inputs": [
        {
          "internalType": "address",
          "name": "cidadao",
          "type": "address"
        }
      ],
      "name": "cadastrarCidadao",
      "outputs": [],
      "payable": false,
      "stateMutability": "nonpayable",
      "type": "function"
    },
    {
      "constant": true,
      "inputs": [],
      "name": "timestampPrimeiraDose",
      "outputs": [
        {
          "internalType": "uint256",
          "name": "",
          "type": "uint256"
        }
      ],
      "payable": false,
      "stateMutability": "view",
      "type": "function"
    },
    {
      "constant": true,
      "inputs": [],
      "name": "timestampSegundaDose",
      "outputs": [
        {
          "internalType": "uint256",
          "name": "",
          "type": "uint256"
        }
      ],
      "payable": false,
      "stateMutability": "view",
      "type": "function"
    },
    {
      "constant": false,
      "inputs": [
        {
          "internalType": "uint256",
          "name": "timestamp",
          "type": "uint256"
        }
      ],
      "name": "aplicarPrimeiraDose",
      "outputs": [],
      "payable": false,
      "stateMutability": "nonpayable",
      "type": "function"
    },
    {
      "constant": false,
      "inputs": [
        {
          "internalType": "uint256",
          "name": "timestamp",
          "type": "uint256"
        }
      ],
      "name": "aplicarSegundaDose",
      "outputs": [],
      "payable": false,
      "stateMutability": "nonpayable",
      "type": "function"
    }
  ],
  "bytecode": "0x608060405234801561001057600080fd5b5033600060086101000a81548173ffffffffffffffffffffffffffffffffffffffff021916908373ffffffffffffffffffffffffffffffffffffffff1602179055506107d7806100616000396000f3fe608060405234801561001057600080fd5b506004361061007d5760003560e01c806366ee94b51161005b57806366ee94b5146100f8578063a90f13431461013c578063c73a593a14610166578063c8a70c46146101845761007d565b8063102f9529146100825780635bab91e3146100b05780635f553b05146100ce575b600080fd5b6100ae6004803603602081101561009857600080fd5b81019080803590602001909291905050506101b2565b005b6100b861036a565b6040518082815260200191505060405180910390f35b6100d66103b4565b604051808263ffffffff1663ffffffff16815260200191505060405180910390f35b61013a6004803603602081101561010e57600080fd5b81019080803573ffffffffffffffffffffffffffffffffffffffff1690602001909291905050506103ca565b005b6101446104cd565b604051808263ffffffff1663ffffffff16815260200191505060405180910390f35b61016e6104e2565b6040518082815260200191505060405180910390f35b6101b06004803603602081101561019a57600080fd5b810190808035906020019092919050505061052c565b005b6000600160003373ffffffffffffffffffffffffffffffffffffffff1673ffffffffffffffffffffffffffffffffffffffff168152602001908152602001600020600201541461024d576040517f08c379a00000000000000000000000000000000000000000000000000000000081526004018080602001828103825260228152602001806107576022913960400191505060405180910390fd5b6000600160003373ffffffffffffffffffffffffffffffffffffffff1673ffffffffffffffffffffffffffffffffffffffff1681526020019081526020016000206001015414156102e9576040517f08c379a000000000000000000000000000000000000000000000000000000000815260040180806020018281038252602a815260200180610779602a913960400191505060405180910390fd5b80600160003373ffffffffffffffffffffffffffffffffffffffff1673ffffffffffffffffffffffffffffffffffffffff168152602001908152602001600020600201819055506001600060048282829054906101000a900463ffffffff160192506101000a81548163ffffffff021916908363ffffffff16021790555050565b6000600160003373ffffffffffffffffffffffffffffffffffffffff1673ffffffffffffffffffffffffffffffffffffffff16815260200190815260200160002060020154905090565b600060049054906101000a900463ffffffff1681565b600060089054906101000a900473ffffffffffffffffffffffffffffffffffffffff1673ffffffffffffffffffffffffffffffffffffffff163373ffffffffffffffffffffffffffffffffffffffff1614610470576040517f08c379a00000000000000000000000000000000000000000000000000000000081526004018080602001828103825260238152602001806107116023913960400191505060405180910390fd5b60018060008373ffffffffffffffffffffffffffffffffffffffff1673ffffffffffffffffffffffffffffffffffffffff16815260200190815260200160002060030160006101000a81548160ff02191690831515021790555050565b6000809054906101000a900463ffffffff1681565b6000600160003373ffffffffffffffffffffffffffffffffffffffff1673ffffffffffffffffffffffffffffffffffffffff16815260200190815260200160002060010154905090565b6000600160003373ffffffffffffffffffffffffffffffffffffffff1673ffffffffffffffffffffffffffffffffffffffff16815260200190815260200160002060010154146105c7576040517f08c379a00000000000000000000000000000000000000000000000000000000081526004018080602001828103825260238152602001806107346023913960400191505060405180910390fd5b60011515600160003373ffffffffffffffffffffffffffffffffffffffff1673ffffffffffffffffffffffffffffffffffffffff16815260200190815260200160002060030160009054906101000a900460ff16151514610690576040517f08c379a00000000000000000000000000000000000000000000000000000000081526004018080602001828103825260178152602001807f4369646164616f206e616f206361646173747261646f2e00000000000000000081525060200191505060405180910390fd5b80600160003373ffffffffffffffffffffffffffffffffffffffff1673ffffffffffffffffffffffffffffffffffffffff1681526020019081526020016000206001018190555060016000808282829054906101000a900463ffffffff160192506101000a81548163ffffffff021916908363ffffffff1602179055505056fe566f6365206e616f20706f64652063616461737472617220756d206369646164616f2e4369646164616f206a6120726563656265752061207072696d6569726120646f73652e4369646164616f206a612072656365626575206120736567756e646120646f73652e4369646164616f2061696e6461206e616f20726563656265752061207072696d6569726120646f73652ea265627a7a72315820c5302d30ef5bd41514fad159cbd5d792e350ec0b11302310a74347e1bbbe5a9364736f6c63430005100032",
  "source": "pragma solidity 0.5.16;\r\n\r\ncontract passaporteCovid {\r\n    \r\n    //pessoas que receberam a primeira dose\r\n     uint32 public totalPrimeiraDose;\r\n     \r\n     //pessoas que receberam a segunda dose\r\n     uint32 public totalSegundaDose;\r\n\r\n     address private administrador;\r\n\r\n     struct Cidadao {\r\n         address cidadao;\r\n         uint primeiraDose;\r\n         uint segundaDose;\r\n         bool cadastrado;\r\n     }\r\n     \r\n     mapping(address => Cidadao) listaCidadao;\r\n\r\n     constructor() public {\r\n         administrador = msg.sender;\r\n     }\r\n\r\n     modifier podeCadastrar() {\r\n         require(msg.sender == administrador,\"Voce nao pode cadastrar um cidadao.\");\r\n         _;\r\n     }\r\n     \r\n     modifier podeAplicarPrimeiraDose() {\r\n         require(listaCidadao[msg.sender].primeiraDose == uint(0),\"Cidadao ja recebeu a primeira dose.\");\r\n         require(listaCidadao[msg.sender].cadastrado == bool(true), \"Cidadao nao cadastrado.\");\r\n         _;\r\n     }\r\n     \r\n     modifier podeAplicarSegundaDose() {\r\n         require(listaCidadao[msg.sender].segundaDose == uint(0),\"Cidadao ja recebeu a segunda dose.\");\r\n         require(listaCidadao[msg.sender].primeiraDose != uint(0), \"Cidadao ainda nao recebeu a primeira dose.\");\r\n         _;\r\n     }\r\n\r\n     function cadastrarCidadao(address cidadao) external podeCadastrar(){\r\n         listaCidadao[cidadao].cadastrado = true;\r\n     }\r\n     \r\n     function timestampPrimeiraDose() external view returns (uint) {\r\n         return listaCidadao[msg.sender].primeiraDose;\r\n     }\r\n     \r\n     function timestampSegundaDose() external view returns (uint) {\r\n         return listaCidadao[msg.sender].segundaDose;\r\n     }\r\n     \r\n     function aplicarPrimeiraDose(uint timestamp) external podeAplicarPrimeiraDose() {\r\n         listaCidadao[msg.sender].primeiraDose = timestamp;\r\n         totalPrimeiraDose += 1;\r\n     }\r\n     \r\n     function aplicarSegundaDose(uint timestamp) external podeAplicarSegundaDose() {\r\n         listaCidadao[msg.sender].segundaDose = timestamp;\r\n         totalSegundaDose += 1;\r\n     }\r\n     \r\n     \r\n}",
  "sourcePath": "C:/Users/pablo/TCC/testTruffle/contracts/covid.sol",
  "compiler": {
    "name": "solc",
    "version": "0.5.16+commit.9c3226ce.Emscripten.clang"
  },
  "schemaVersion": "3.4.1",
  "updatedAt": "2021-05-26T21:59:24.054Z",
  "devdoc": {
    "methods": {}
  },
  "userdoc": {
    "methods": {}
  }
}