{
  "contractName": "passaporteCovid",
  "abi": [
    {
      "inputs": [],
      "payable": false,
      "stateMutability": "nonpayable",
      "type": "constructor"
    },
    {
      "constant": true,
      "inputs": [],
      "name": "totalPrimeiraDose",
      "outputs": [
        {
          "internalType": "uint32",
          "name": "",
          "type": "uint32"
        }
      ],
      "payable": false,
      "stateMutability": "view",
      "type": "function"
    },
    {
      "constant": true,
      "inputs": [],
      "name": "totalSegundaDose",
      "outputs": [
        {
          "internalType": "uint32",
          "name": "",
          "type": "uint32"
        }
      ],
      "payable": false,
      "stateMutability": "view",
      "type": "function"
    },
    {
      "constant": false,
      "inputs": [
        {
          "internalType": "address",
          "name": "admin",
          "type": "address"
        },
        {
          "internalType": "string",
          "name": "cfm",
          "type": "string"
        },
        {
          "internalType": "bool",
          "name": "ativo",
          "type": "bool"
        }
      ],
      "name": "cadastrarAdministrador",
      "outputs": [],
      "payable": false,
      "stateMutability": "nonpayable",
      "type": "function"
    },
    {
      "constant": false,
      "inputs": [
        {
          "internalType": "address",
          "name": "cidadao",
          "type": "address"
        }
      ],
      "name": "cadastrarCidadao",
      "outputs": [],
      "payable": false,
      "stateMutability": "nonpayable",
      "type": "function"
    },
    {
      "constant": false,
      "inputs": [
        {
          "internalType": "address",
          "name": "cidadao",
          "type": "address"
        },
        {
          "internalType": "address",
          "name": "ipfs",
          "type": "address"
        }
      ],
      "name": "addDocumento",
      "outputs": [],
      "payable": false,
      "stateMutability": "nonpayable",
      "type": "function"
    },
    {
      "constant": true,
      "inputs": [
        {
          "internalType": "address",
          "name": "cidadao",
          "type": "address"
        }
      ],
      "name": "getDocumentos",
      "outputs": [
        {
          "internalType": "address[]",
          "name": "",
          "type": "address[]"
        }
      ],
      "payable": false,
      "stateMutability": "view",
      "type": "function"
    },
    {
      "constant": true,
      "inputs": [
        {
          "internalType": "address",
          "name": "cidadao",
          "type": "address"
        }
      ],
      "name": "getHistoricoDatasVacinas",
      "outputs": [
        {
          "internalType": "uint256",
          "name": "",
          "type": "uint256"
        },
        {
          "internalType": "uint256",
          "name": "",
          "type": "uint256"
        }
      ],
      "payable": false,
      "stateMutability": "view",
      "type": "function"
    },
    {
      "constant": false,
      "inputs": [
        {
          "internalType": "uint256",
          "name": "timestamp",
          "type": "uint256"
        },
        {
          "internalType": "address",
          "name": "cidadao",
          "type": "address"
        }
      ],
      "name": "aplicarPrimeiraDose",
      "outputs": [],
      "payable": false,
      "stateMutability": "nonpayable",
      "type": "function"
    },
    {
      "constant": false,
      "inputs": [
        {
          "internalType": "uint256",
          "name": "timestamp",
          "type": "uint256"
        },
        {
          "internalType": "address",
          "name": "cidadao",
          "type": "address"
        }
      ],
      "name": "aplicarSegundaDose",
      "outputs": [],
      "payable": false,
      "stateMutability": "nonpayable",
      "type": "function"
    }
  ],
  "bytecode": "0x608060405234801561001057600080fd5b5033600060086101000a81548173ffffffffffffffffffffffffffffffffffffffff021916908373ffffffffffffffffffffffffffffffffffffffff160217905550611457806100616000396000f3fe608060405234801561001057600080fd5b50600436106100935760003560e01c80637c3c59b2116100665780637c3c59b2146101f9578063964f172914610247578063a90f1343146102a6578063eb8db7d9146102d0578063f9dce8081461036957610093565b80633f6f7fad146100985780635f553b05146100e6578063646f76d11461011057806366ee94b5146101b5575b600080fd5b6100e4600480360360408110156100ae57600080fd5b8101908080359060200190929190803573ffffffffffffffffffffffffffffffffffffffff1690602001909291905050506103cd565b005b6100ee61067d565b604051808263ffffffff1663ffffffff16815260200191505060405180910390f35b6101b36004803603606081101561012657600080fd5b81019080803573ffffffffffffffffffffffffffffffffffffffff1690602001909291908035906020019064010000000081111561016357600080fd5b82018360208201111561017557600080fd5b8035906020019184600183028401116401000000008311171561019757600080fd5b9091929391929390803515159060200190929190505050610693565b005b6101f7600480360360208110156101cb57600080fd5b81019080803573ffffffffffffffffffffffffffffffffffffffff169060200190929190505050610825565b005b6102456004803603604081101561020f57600080fd5b8101908080359060200190929190803573ffffffffffffffffffffffffffffffffffffffff1690602001909291905050506109da565b005b6102896004803603602081101561025d57600080fd5b81019080803573ffffffffffffffffffffffffffffffffffffffff169060200190929190505050610d27565b604051808381526020018281526020019250505060405180910390f35b6102ae610db9565b604051808263ffffffff1663ffffffff16815260200191505060405180910390f35b610312600480360360208110156102e657600080fd5b81019080803573ffffffffffffffffffffffffffffffffffffffff169060200190929190505050610dce565b6040518080602001828103825283818151815260200191508051906020019060200280838360005b8381101561035557808201518184015260208101905061033a565b505050509050019250505060405180910390f35b6103cb6004803603604081101561037f57600080fd5b81019080803573ffffffffffffffffffffffffffffffffffffffff169060200190929190803573ffffffffffffffffffffffffffffffffffffffff169060200190929190505050610f9f565b005b8060011515600260003373ffffffffffffffffffffffffffffffffffffffff1673ffffffffffffffffffffffffffffffffffffffff16815260200190815260200160002060000160009054906101000a900460ff16151514610497576040517f08c379a00000000000000000000000000000000000000000000000000000000081526004018080602001828103825260168152602001807f566f6365206e616f20706f646520766163696e61722e0000000000000000000081525060200191505060405180910390fd5b6000600160008373ffffffffffffffffffffffffffffffffffffffff1673ffffffffffffffffffffffffffffffffffffffff1681526020019081526020016000206000015414610532576040517f08c379a000000000000000000000000000000000000000000000000000000000815260040180806020018281038252602381526020018061135a6023913960400191505060405180910390fd5b60011515600160008373ffffffffffffffffffffffffffffffffffffffff1673ffffffffffffffffffffffffffffffffffffffff16815260200190815260200160002060020160009054906101000a900460ff161515146105fb576040517f08c379a00000000000000000000000000000000000000000000000000000000081526004018080602001828103825260178152602001807f4369646164616f206e616f206361646173747261646f2e00000000000000000081525060200191505060405180910390fd5b82600160008473ffffffffffffffffffffffffffffffffffffffff1673ffffffffffffffffffffffffffffffffffffffff1681526020019081526020016000206000018190555060016000808282829054906101000a900463ffffffff160192506101000a81548163ffffffff021916908363ffffffff160217905550505050565b600060049054906101000a900463ffffffff1681565b600060089054906101000a900473ffffffffffffffffffffffffffffffffffffffff1673ffffffffffffffffffffffffffffffffffffffff163373ffffffffffffffffffffffffffffffffffffffff1614610739576040517f08c379a000000000000000000000000000000000000000000000000000000000815260040180806020018281038252602981526020018061139f6029913960400191505060405180910390fd5b610741611177565b6040518060400160405280831515815260200185858080601f016020809104026020016040519081016040528093929190818152602001838380828437600081840152601f19601f82011690508083019250505050505050815250905080600260008773ffffffffffffffffffffffffffffffffffffffff1673ffffffffffffffffffffffffffffffffffffffff16815260200190815260200160002060008201518160000160006101000a81548160ff021916908315150217905550602082015181600101908051906020019061081a929190611193565b509050505050505050565b60011515600260003373ffffffffffffffffffffffffffffffffffffffff1673ffffffffffffffffffffffffffffffffffffffff16815260200190815260200160002060000160009054906101000a900460ff161515146108d1576040517f08c379a00000000000000000000000000000000000000000000000000000000081526004018080602001828103825260238152602001806113376023913960400191505060405180910390fd5b6108d9611213565b6040518060a0016040528060008152602001600081526020016001151581526020016000815260200160006040519080825280602002602001820160405280156109325781602001602082028038833980820191505090505b50815250905080600160008473ffffffffffffffffffffffffffffffffffffffff1673ffffffffffffffffffffffffffffffffffffffff168152602001908152602001600020600082015181600001556020820151816001015560408201518160020160006101000a81548160ff0219169083151502179055506060820151816003015560808201518160040190805190602001906109d2929190611244565b509050505050565b8060011515600260003373ffffffffffffffffffffffffffffffffffffffff1673ffffffffffffffffffffffffffffffffffffffff16815260200190815260200160002060000160009054906101000a900460ff16151514610aa4576040517f08c379a00000000000000000000000000000000000000000000000000000000081526004018080602001828103825260168152602001807f566f6365206e616f20706f646520766163696e61722e0000000000000000000081525060200191505060405180910390fd5b6000600160008373ffffffffffffffffffffffffffffffffffffffff1673ffffffffffffffffffffffffffffffffffffffff168152602001908152602001600020600001541415610b40576040517f08c379a000000000000000000000000000000000000000000000000000000000815260040180806020018281038252602b8152602001806113c8602b913960400191505060405180910390fd5b6000600160008373ffffffffffffffffffffffffffffffffffffffff1673ffffffffffffffffffffffffffffffffffffffff1681526020019081526020016000206001015414610bdb576040517f08c379a000000000000000000000000000000000000000000000000000000000815260040180806020018281038252602281526020018061137d6022913960400191505060405180910390fd5b60011515600160008373ffffffffffffffffffffffffffffffffffffffff1673ffffffffffffffffffffffffffffffffffffffff16815260200190815260200160002060020160009054906101000a900460ff16151514610ca4576040517f08c379a00000000000000000000000000000000000000000000000000000000081526004018080602001828103825260178152602001807f4369646164616f206e616f206361646173747261646f2e00000000000000000081525060200191505060405180910390fd5b82600160008473ffffffffffffffffffffffffffffffffffffffff1673ffffffffffffffffffffffffffffffffffffffff168152602001908152602001600020600101819055506001600060048282829054906101000a900463ffffffff160192506101000a81548163ffffffff021916908363ffffffff160217905550505050565b600080600160008473ffffffffffffffffffffffffffffffffffffffff1673ffffffffffffffffffffffffffffffffffffffff16815260200190815260200160002060000154600160008573ffffffffffffffffffffffffffffffffffffffff1673ffffffffffffffffffffffffffffffffffffffff1681526020019081526020016000206001015491509150915091565b6000809054906101000a900463ffffffff1681565b60608160011515600260003373ffffffffffffffffffffffffffffffffffffffff1673ffffffffffffffffffffffffffffffffffffffff16815260200190815260200160002060000160009054906101000a900460ff1615151480610e5e57508073ffffffffffffffffffffffffffffffffffffffff163373ffffffffffffffffffffffffffffffffffffffff16145b610ed0576040517f08c379a000000000000000000000000000000000000000000000000000000000815260040180806020018281038252601c8152602001807f566f6365206e616f20706f64652076657220686973746f7269636f2e0000000081525060200191505060405180910390fd5b600160008473ffffffffffffffffffffffffffffffffffffffff1673ffffffffffffffffffffffffffffffffffffffff168152602001908152602001600020600401805480602002602001604051908101604052809291908181526020018280548015610f9257602002820191906000526020600020905b8160009054906101000a900473ffffffffffffffffffffffffffffffffffffffff1673ffffffffffffffffffffffffffffffffffffffff1681526020019060010190808311610f48575b5050505050915050919050565b60011515600260003373ffffffffffffffffffffffffffffffffffffffff1673ffffffffffffffffffffffffffffffffffffffff16815260200190815260200160002060000160009054906101000a900460ff1615151461104b576040517f08c379a00000000000000000000000000000000000000000000000000000000081526004018080602001828103825260308152602001806113f36030913960400191505060405180910390fd5b80600160008473ffffffffffffffffffffffffffffffffffffffff1673ffffffffffffffffffffffffffffffffffffffff168152602001908152602001600020600401600160008573ffffffffffffffffffffffffffffffffffffffff1673ffffffffffffffffffffffffffffffffffffffff16815260200190815260200160002060030154815481106110db57fe5b9060005260206000200160006101000a81548173ffffffffffffffffffffffffffffffffffffffff021916908373ffffffffffffffffffffffffffffffffffffffff16021790555060018060008473ffffffffffffffffffffffffffffffffffffffff1673ffffffffffffffffffffffffffffffffffffffff168152602001908152602001600020600301600082825401925050819055505050565b6040518060400160405280600015158152602001606081525090565b828054600181600116156101000203166002900490600052602060002090601f016020900481019282601f106111d457805160ff1916838001178555611202565b82800160010185558215611202579182015b828111156112015782518255916020019190600101906111e6565b5b50905061120f91906112ce565b5090565b6040518060a00160405280600081526020016000815260200160001515815260200160008152602001606081525090565b8280548282559060005260206000209081019282156112bd579160200282015b828111156112bc5782518260006101000a81548173ffffffffffffffffffffffffffffffffffffffff021916908373ffffffffffffffffffffffffffffffffffffffff16021790555091602001919060010190611264565b5b5090506112ca91906112f3565b5090565b6112f091905b808211156112ec5760008160009055506001016112d4565b5090565b90565b61133391905b8082111561132f57600081816101000a81549073ffffffffffffffffffffffffffffffffffffffff0219169055506001016112f9565b5090565b9056fe566f6365206e616f20706f64652063616461737472617220756d206369646164616f2e4369646164616f206a6120726563656265752061207072696d6569726120646f73652e4369646164616f206a612072656365626575206120736567756e646120646f73652e566f6365206e616f20706f64652063616461737472617220756d2061646d696e6973747261646f722e4369646164616f2061696e6461206ec3a36f20726563656265752061207072696d6569726120646f73652e566f6365206e616f20706f64652061646963696f6e617220646f63756d656e746f7320616f20686973746f7269636f2ea265627a7a72315820a306b41e30c4c6e18736e7ed3852e81d48ae5952d9884baa241fd832470e4c6e64736f6c63430005100032",
  "source": "pragma solidity 0.5.16;\r\n\r\ncontract passaporteCovid {\r\n\r\n    //pessoas que receberam a primeira dose\r\n     uint32 public totalPrimeiraDose;\r\n\r\n     //pessoas que receberam a segunda dose\r\n     uint32 public totalSegundaDose;\r\n\r\n     address private owner;\r\n\r\n     struct Cidadao {\r\n         uint primeiraDose;\r\n         uint segundaDose;\r\n         bool cadastrado;\r\n         uint docCount;\r\n         address[] documentos;\r\n     }\r\n\r\n    struct Administrador {\r\n        bool ativo;\r\n        string cfm;\r\n    }\r\n\r\n    mapping(address => Cidadao) listaCidadao;\r\n    mapping(address => Administrador) listaAdministradores;\r\n\r\n     constructor() public {\r\n         owner = msg.sender;\r\n     }\r\n\r\n     modifier podeCadastrar() {\r\n         require(listaAdministradores[msg.sender].ativo == bool(true), \"Voce nao pode cadastrar um cidadao.\");\r\n         _;\r\n     }\r\n\r\n     modifier podeAdicionarDocumento() {\r\n         require(listaAdministradores[msg.sender].ativo == bool(true), \"Voce nao pode adicionar documentos ao historico.\");\r\n         _;\r\n     }\r\n\r\n     modifier podeCadastrarAdministrador() {\r\n         require(msg.sender == owner,\"Voce nao pode cadastrar um administrador.\");\r\n         _;\r\n     }\r\n\r\n     modifier podeGetDocumentos(address cidadao) {\r\n         require(listaAdministradores[msg.sender].ativo == bool(true) || uint(msg.sender) == uint(cidadao), \"Voce nao pode ver historico.\");\r\n         _;\r\n     }\r\n\r\n     modifier podeAplicarPrimeiraDose(address cidadao) {\r\n         require(listaAdministradores[msg.sender].ativo == bool(true), \"Voce nao pode vacinar.\");\r\n         require(listaCidadao[cidadao].primeiraDose == uint(0),\"Cidadao ja recebeu a primeira dose.\");\r\n         require(listaCidadao[cidadao].cadastrado == bool(true), \"Cidadao nao cadastrado.\");\r\n         _;\r\n     }\r\n\r\n     modifier podeAplicarSegundaDose(address cidadao) {\r\n         require(listaAdministradores[msg.sender].ativo == bool(true), \"Voce nao pode vacinar.\");\r\n         require(listaCidadao[cidadao].primeiraDose != uint(0),\"Cidadao ainda não recebeu a primeira dose.\");\r\n         require(listaCidadao[cidadao].segundaDose == uint(0),\"Cidadao ja recebeu a segunda dose.\");\r\n         require(listaCidadao[cidadao].cadastrado == bool(true), \"Cidadao nao cadastrado.\");\r\n         _;\r\n     }\r\n\r\n    function cadastrarAdministrador(address admin, string calldata cfm, bool ativo) external podeCadastrarAdministrador(){\r\n        Administrador memory newAdmin = Administrador(ativo, cfm);\r\n        listaAdministradores[admin] = newAdmin;\r\n    }\r\n\r\n    function cadastrarCidadao(address cidadao) external podeCadastrar(){\r\n        Cidadao memory newCidadao = Cidadao(0, 0, true, 0, new address[](0));\r\n        listaCidadao[cidadao] = newCidadao;\r\n    }\r\n\r\n    function addDocumento(address cidadao, address ipfs) external podeAdicionarDocumento() {\r\n        listaCidadao[cidadao].documentos[listaCidadao[cidadao].docCount] = ipfs;\r\n        listaCidadao[cidadao].docCount += 1;\r\n    }\r\n\r\n    function getDocumentos(address cidadao) external view podeGetDocumentos(cidadao) returns (address  [] memory) {\r\n        return listaCidadao[cidadao].documentos;\r\n    }\r\n\r\n    function getHistoricoDatasVacinas(address cidadao) external view returns (uint, uint) {\r\n        return (listaCidadao[cidadao].primeiraDose, listaCidadao[cidadao].segundaDose);\r\n    }\r\n\r\n     function aplicarPrimeiraDose(uint timestamp, address cidadao) external podeAplicarPrimeiraDose(cidadao) {\r\n         listaCidadao[cidadao].primeiraDose = timestamp;\r\n         totalPrimeiraDose += 1;\r\n     }\r\n\r\n     function aplicarSegundaDose(uint timestamp, address cidadao) external podeAplicarSegundaDose(cidadao) {\r\n         listaCidadao[cidadao].segundaDose = timestamp;\r\n         totalSegundaDose += 1;\r\n     }\r\n}",
  "sourcePath": "C:/Users/pablo/TCC/testTruffle/contracts/covid.sol",
  "compiler": {
    "name": "solc",
    "version": "0.5.16+commit.9c3226ce.Emscripten.clang"
  },
  "schemaVersion": "3.4.1",
  "updatedAt": "2021-05-26T23:29:07.409Z",
  "devdoc": {
    "methods": {}
  },
  "userdoc": {
    "methods": {}
  }
}