{
  "contractName": "passaporteCovid",
  "abi": [
    {
      "inputs": [],
      "payable": false,
      "stateMutability": "nonpayable",
      "type": "constructor"
    },
    {
      "constant": true,
      "inputs": [],
      "name": "totalPrimeiraDose",
      "outputs": [
        {
          "internalType": "uint32",
          "name": "",
          "type": "uint32"
        }
      ],
      "payable": false,
      "stateMutability": "view",
      "type": "function"
    },
    {
      "constant": true,
      "inputs": [],
      "name": "totalSegundaDose",
      "outputs": [
        {
          "internalType": "uint32",
          "name": "",
          "type": "uint32"
        }
      ],
      "payable": false,
      "stateMutability": "view",
      "type": "function"
    },
    {
      "constant": false,
      "inputs": [
        {
          "internalType": "address",
          "name": "admin",
          "type": "address"
        },
        {
          "internalType": "uint256",
          "name": "timestamp",
          "type": "uint256"
        }
      ],
      "name": "permitirAdministrador",
      "outputs": [],
      "payable": false,
      "stateMutability": "nonpayable",
      "type": "function"
    },
    {
      "constant": false,
      "inputs": [
        {
          "internalType": "address",
          "name": "admin",
          "type": "address"
        },
        {
          "internalType": "string",
          "name": "cfm",
          "type": "string"
        },
        {
          "internalType": "bool",
          "name": "ativo",
          "type": "bool"
        }
      ],
      "name": "cadastrarAdministrador",
      "outputs": [],
      "payable": false,
      "stateMutability": "nonpayable",
      "type": "function"
    },
    {
      "constant": false,
      "inputs": [
        {
          "internalType": "address",
          "name": "cidadao",
          "type": "address"
        }
      ],
      "name": "cadastrarCidadao",
      "outputs": [],
      "payable": false,
      "stateMutability": "nonpayable",
      "type": "function"
    },
    {
      "constant": false,
      "inputs": [
        {
          "internalType": "address",
          "name": "cidadao",
          "type": "address"
        },
        {
          "internalType": "address",
          "name": "ipfs",
          "type": "address"
        }
      ],
      "name": "addDocumento",
      "outputs": [],
      "payable": false,
      "stateMutability": "nonpayable",
      "type": "function"
    },
    {
      "constant": true,
      "inputs": [
        {
          "internalType": "address",
          "name": "cidadao",
          "type": "address"
        },
        {
          "internalType": "uint256",
          "name": "timestamp",
          "type": "uint256"
        }
      ],
      "name": "getDocumentos",
      "outputs": [
        {
          "internalType": "address[]",
          "name": "",
          "type": "address[]"
        }
      ],
      "payable": false,
      "stateMutability": "view",
      "type": "function"
    },
    {
      "constant": true,
      "inputs": [
        {
          "internalType": "address",
          "name": "cidadao",
          "type": "address"
        },
        {
          "internalType": "uint256",
          "name": "timestamp",
          "type": "uint256"
        }
      ],
      "name": "getHistoricoDatasVacinas",
      "outputs": [
        {
          "internalType": "uint256",
          "name": "",
          "type": "uint256"
        },
        {
          "internalType": "uint256",
          "name": "",
          "type": "uint256"
        }
      ],
      "payable": false,
      "stateMutability": "view",
      "type": "function"
    },
    {
      "constant": false,
      "inputs": [
        {
          "internalType": "uint256",
          "name": "timestamp",
          "type": "uint256"
        },
        {
          "internalType": "address",
          "name": "cidadao",
          "type": "address"
        }
      ],
      "name": "aplicarPrimeiraDose",
      "outputs": [],
      "payable": false,
      "stateMutability": "nonpayable",
      "type": "function"
    },
    {
      "constant": false,
      "inputs": [
        {
          "internalType": "uint256",
          "name": "timestamp",
          "type": "uint256"
        },
        {
          "internalType": "address",
          "name": "cidadao",
          "type": "address"
        }
      ],
      "name": "aplicarSegundaDose",
      "outputs": [],
      "payable": false,
      "stateMutability": "nonpayable",
      "type": "function"
    }
  ],
  "bytecode": "0x608060405234801561001057600080fd5b5033600060086101000a81548173ffffffffffffffffffffffffffffffffffffffff021916908373ffffffffffffffffffffffffffffffffffffffff160217905550611907806100616000396000f3fe608060405234801561001057600080fd5b506004361061009e5760003560e01c80637c3c59b2116100665780637c3c59b214610252578063a90f1343146102a0578063aa9d30b4146102ca578063f2263a2814610333578063f9dce808146103d65761009e565b80633f6f7fad146100a357806342c16b1b146100f15780635f553b051461013f578063646f76d11461016957806366ee94b51461020e575b600080fd5b6100ef600480360360408110156100b957600080fd5b8101908080359060200190929190803573ffffffffffffffffffffffffffffffffffffffff16906020019092919050505061043a565b005b61013d6004803603604081101561010757600080fd5b81019080803573ffffffffffffffffffffffffffffffffffffffff169060200190929190803590602001909291905050506106ea565b005b6101476107b6565b604051808263ffffffff1663ffffffff16815260200191505060405180910390f35b61020c6004803603606081101561017f57600080fd5b81019080803573ffffffffffffffffffffffffffffffffffffffff169060200190929190803590602001906401000000008111156101bc57600080fd5b8201836020820111156101ce57600080fd5b803590602001918460018302840111640100000000831117156101f057600080fd5b90919293919293908035151590602001909291905050506107cc565b005b6102506004803603602081101561022457600080fd5b81019080803573ffffffffffffffffffffffffffffffffffffffff16906020019092919050505061095e565b005b61029e6004803603604081101561026857600080fd5b8101908080359060200190929190803573ffffffffffffffffffffffffffffffffffffffff169060200190929190505050610b88565b005b6102a8610ed5565b604051808263ffffffff1663ffffffff16815260200191505060405180910390f35b610316600480360360408110156102e057600080fd5b81019080803573ffffffffffffffffffffffffffffffffffffffff16906020019092919080359060200190929190505050610eea565b604051808381526020018281526020019250505060405180910390f35b61037f6004803603604081101561034957600080fd5b81019080803573ffffffffffffffffffffffffffffffffffffffff1690602001909291908035906020019092919050505061116c565b6040518080602001828103825283818151815260200191508051906020019060200280838360005b838110156103c25780820151818401526020810190506103a7565b505050509050019250505060405180910390f35b610438600480360360408110156103ec57600080fd5b81019080803573ffffffffffffffffffffffffffffffffffffffff169060200190929190803573ffffffffffffffffffffffffffffffffffffffff16906020019092919050505061142b565b005b8060011515600260003373ffffffffffffffffffffffffffffffffffffffff1673ffffffffffffffffffffffffffffffffffffffff16815260200190815260200160002060000160009054906101000a900460ff16151514610504576040517f08c379a00000000000000000000000000000000000000000000000000000000081526004018080602001828103825260168152602001807f566f6365206e616f20706f646520766163696e61722e0000000000000000000081525060200191505060405180910390fd5b6000600160008373ffffffffffffffffffffffffffffffffffffffff1673ffffffffffffffffffffffffffffffffffffffff168152602001908152602001600020600001541461059f576040517f08c379a000000000000000000000000000000000000000000000000000000000815260040180806020018281038252602381526020018061180a6023913960400191505060405180910390fd5b60011515600160008373ffffffffffffffffffffffffffffffffffffffff1673ffffffffffffffffffffffffffffffffffffffff16815260200190815260200160002060020160009054906101000a900460ff16151514610668576040517f08c379a00000000000000000000000000000000000000000000000000000000081526004018080602001828103825260178152602001807f4369646164616f206e616f206361646173747261646f2e00000000000000000081525060200191505060405180910390fd5b82600160008473ffffffffffffffffffffffffffffffffffffffff1673ffffffffffffffffffffffffffffffffffffffff1681526020019081526020016000206000018190555060016000808282829054906101000a900463ffffffff160192506101000a81548163ffffffff021916908363ffffffff160217905550505050565b81600160003373ffffffffffffffffffffffffffffffffffffffff1673ffffffffffffffffffffffffffffffffffffffff16815260200190815260200160002060040160006101000a81548173ffffffffffffffffffffffffffffffffffffffff021916908373ffffffffffffffffffffffffffffffffffffffff16021790555080600160003373ffffffffffffffffffffffffffffffffffffffff1673ffffffffffffffffffffffffffffffffffffffff168152602001908152602001600020600501819055505050565b600060049054906101000a900463ffffffff1681565b600060089054906101000a900473ffffffffffffffffffffffffffffffffffffffff1673ffffffffffffffffffffffffffffffffffffffff163373ffffffffffffffffffffffffffffffffffffffff1614610872576040517f08c379a000000000000000000000000000000000000000000000000000000000815260040180806020018281038252602981526020018061184f6029913960400191505060405180910390fd5b61087a611603565b6040518060400160405280831515815260200185858080601f016020809104026020016040519081016040528093929190818152602001838380828437600081840152601f19601f82011690508083019250505050505050815250905080600260008773ffffffffffffffffffffffffffffffffffffffff1673ffffffffffffffffffffffffffffffffffffffff16815260200190815260200160002060008201518160000160006101000a81548160ff021916908315150217905550602082015181600101908051906020019061095392919061161f565b509050505050505050565b60011515600260003373ffffffffffffffffffffffffffffffffffffffff1673ffffffffffffffffffffffffffffffffffffffff16815260200190815260200160002060000160009054906101000a900460ff16151514610a0a576040517f08c379a00000000000000000000000000000000000000000000000000000000081526004018080602001828103825260238152602001806117e76023913960400191505060405180910390fd5b610a1261169f565b6040518060e00160405280600081526020016000815260200160011515815260200160008152602001600073ffffffffffffffffffffffffffffffffffffffff168152602001600081526020016000604051908082528060200260200182016040528015610a8f5781602001602082028038833980820191505090505b50815250905080600160008473ffffffffffffffffffffffffffffffffffffffff1673ffffffffffffffffffffffffffffffffffffffff168152602001908152602001600020600082015181600001556020820151816001015560408201518160020160006101000a81548160ff0219169083151502179055506060820151816003015560808201518160040160006101000a81548173ffffffffffffffffffffffffffffffffffffffff021916908373ffffffffffffffffffffffffffffffffffffffff16021790555060a0820151816005015560c0820151816006019080519060200190610b809291906116f4565b509050505050565b8060011515600260003373ffffffffffffffffffffffffffffffffffffffff1673ffffffffffffffffffffffffffffffffffffffff16815260200190815260200160002060000160009054906101000a900460ff16151514610c52576040517f08c379a00000000000000000000000000000000000000000000000000000000081526004018080602001828103825260168152602001807f566f6365206e616f20706f646520766163696e61722e0000000000000000000081525060200191505060405180910390fd5b6000600160008373ffffffffffffffffffffffffffffffffffffffff1673ffffffffffffffffffffffffffffffffffffffff168152602001908152602001600020600001541415610cee576040517f08c379a000000000000000000000000000000000000000000000000000000000815260040180806020018281038252602b815260200180611878602b913960400191505060405180910390fd5b6000600160008373ffffffffffffffffffffffffffffffffffffffff1673ffffffffffffffffffffffffffffffffffffffff1681526020019081526020016000206001015414610d89576040517f08c379a000000000000000000000000000000000000000000000000000000000815260040180806020018281038252602281526020018061182d6022913960400191505060405180910390fd5b60011515600160008373ffffffffffffffffffffffffffffffffffffffff1673ffffffffffffffffffffffffffffffffffffffff16815260200190815260200160002060020160009054906101000a900460ff16151514610e52576040517f08c379a00000000000000000000000000000000000000000000000000000000081526004018080602001828103825260178152602001807f4369646164616f206e616f206361646173747261646f2e00000000000000000081525060200191505060405180910390fd5b82600160008473ffffffffffffffffffffffffffffffffffffffff1673ffffffffffffffffffffffffffffffffffffffff168152602001908152602001600020600101819055506001600060048282829054906101000a900463ffffffff160192506101000a81548163ffffffff021916908363ffffffff160217905550505050565b6000809054906101000a900463ffffffff1681565b600080838360011515600260003373ffffffffffffffffffffffffffffffffffffffff1673ffffffffffffffffffffffffffffffffffffffff16815260200190815260200160002060000160009054906101000a900460ff161515148015610fdf5750600160008373ffffffffffffffffffffffffffffffffffffffff1673ffffffffffffffffffffffffffffffffffffffff16815260200190815260200160002060040160009054906101000a900473ffffffffffffffffffffffffffffffffffffffff1673ffffffffffffffffffffffffffffffffffffffff163373ffffffffffffffffffffffffffffffffffffffff16145b80156110315750610e10600160008473ffffffffffffffffffffffffffffffffffffffff1673ffffffffffffffffffffffffffffffffffffffff16815260200190815260200160002060050154018111155b8061106757508173ffffffffffffffffffffffffffffffffffffffff163373ffffffffffffffffffffffffffffffffffffffff16145b6110d9576040517f08c379a000000000000000000000000000000000000000000000000000000000815260040180806020018281038252601c8152602001807f566f6365206e616f20706f64652076657220686973746f7269636f2e0000000081525060200191505060405180910390fd5b600160008773ffffffffffffffffffffffffffffffffffffffff1673ffffffffffffffffffffffffffffffffffffffff16815260200190815260200160002060000154600160008873ffffffffffffffffffffffffffffffffffffffff1673ffffffffffffffffffffffffffffffffffffffff168152602001908152602001600020600101549350935050509250929050565b6060828260011515600260003373ffffffffffffffffffffffffffffffffffffffff1673ffffffffffffffffffffffffffffffffffffffff16815260200190815260200160002060000160009054906101000a900460ff1615151480156112605750600160008373ffffffffffffffffffffffffffffffffffffffff1673ffffffffffffffffffffffffffffffffffffffff16815260200190815260200160002060040160009054906101000a900473ffffffffffffffffffffffffffffffffffffffff1673ffffffffffffffffffffffffffffffffffffffff163373ffffffffffffffffffffffffffffffffffffffff16145b80156112b25750610e10600160008473ffffffffffffffffffffffffffffffffffffffff1673ffffffffffffffffffffffffffffffffffffffff16815260200190815260200160002060050154018111155b806112e857508173ffffffffffffffffffffffffffffffffffffffff163373ffffffffffffffffffffffffffffffffffffffff16145b61135a576040517f08c379a000000000000000000000000000000000000000000000000000000000815260040180806020018281038252601c8152602001807f566f6365206e616f20706f64652076657220686973746f7269636f2e0000000081525060200191505060405180910390fd5b600160008673ffffffffffffffffffffffffffffffffffffffff1673ffffffffffffffffffffffffffffffffffffffff16815260200190815260200160002060060180548060200260200160405190810160405280929190818152602001828054801561141c57602002820191906000526020600020905b8160009054906101000a900473ffffffffffffffffffffffffffffffffffffffff1673ffffffffffffffffffffffffffffffffffffffff16815260200190600101908083116113d2575b50505050509250505092915050565b60011515600260003373ffffffffffffffffffffffffffffffffffffffff1673ffffffffffffffffffffffffffffffffffffffff16815260200190815260200160002060000160009054906101000a900460ff161515146114d7576040517f08c379a00000000000000000000000000000000000000000000000000000000081526004018080602001828103825260308152602001806118a36030913960400191505060405180910390fd5b80600160008473ffffffffffffffffffffffffffffffffffffffff1673ffffffffffffffffffffffffffffffffffffffff168152602001908152602001600020600601600160008573ffffffffffffffffffffffffffffffffffffffff1673ffffffffffffffffffffffffffffffffffffffff168152602001908152602001600020600301548154811061156757fe5b9060005260206000200160006101000a81548173ffffffffffffffffffffffffffffffffffffffff021916908373ffffffffffffffffffffffffffffffffffffffff16021790555060018060008473ffffffffffffffffffffffffffffffffffffffff1673ffffffffffffffffffffffffffffffffffffffff168152602001908152602001600020600301600082825401925050819055505050565b6040518060400160405280600015158152602001606081525090565b828054600181600116156101000203166002900490600052602060002090601f016020900481019282601f1061166057805160ff191683800117855561168e565b8280016001018555821561168e579182015b8281111561168d578251825591602001919060010190611672565b5b50905061169b919061177e565b5090565b6040518060e00160405280600081526020016000815260200160001515815260200160008152602001600073ffffffffffffffffffffffffffffffffffffffff16815260200160008152602001606081525090565b82805482825590600052602060002090810192821561176d579160200282015b8281111561176c5782518260006101000a81548173ffffffffffffffffffffffffffffffffffffffff021916908373ffffffffffffffffffffffffffffffffffffffff16021790555091602001919060010190611714565b5b50905061177a91906117a3565b5090565b6117a091905b8082111561179c576000816000905550600101611784565b5090565b90565b6117e391905b808211156117df57600081816101000a81549073ffffffffffffffffffffffffffffffffffffffff0219169055506001016117a9565b5090565b9056fe566f6365206e616f20706f64652063616461737472617220756d206369646164616f2e4369646164616f206a6120726563656265752061207072696d6569726120646f73652e4369646164616f206a612072656365626575206120736567756e646120646f73652e566f6365206e616f20706f64652063616461737472617220756d2061646d696e6973747261646f722e4369646164616f2061696e6461206ec3a36f20726563656265752061207072696d6569726120646f73652e566f6365206e616f20706f64652061646963696f6e617220646f63756d656e746f7320616f20686973746f7269636f2ea265627a7a72315820bf1849f252288a03e8c97a5c36fcef8f8efd4bf02c8fabbe64ee0da48ded83a164736f6c63430005100032",
  "source": "pragma solidity 0.5.16;\r\n\r\ncontract passaporteCovid {\r\n\r\n    //pessoas que receberam a primeira dose\r\n     uint32 public totalPrimeiraDose;\r\n\r\n     //pessoas que receberam a segunda dose\r\n     uint32 public totalSegundaDose;\r\n\r\n     address private owner;\r\n\r\n    // tirei o campo address porque já é a key do mapping\r\n    // adicionei documentos (historico medico. para futuras versoes?) e docCount (pra fazer de indice do array de documentos)\r\n    // os documentos sao subidos à IPFS e salvamos aqui um endereço hash. depois a gente pode baixar no app com esse endereço.\r\n     struct Cidadao {\r\n         uint primeiraDose;\r\n         uint segundaDose;\r\n         bool cadastrado;\r\n         uint docCount;\r\n         address administrador;\r\n         uint adminTimestamp;\r\n         address[] documentos;\r\n     }\r\n\r\n    // adicionei o struct administrador. O booleano ativo é pra ter a posibilidade de desativar medicos\r\n    struct Administrador {\r\n        bool ativo;\r\n        string cfm;\r\n    }\r\n\r\n    mapping(address => Cidadao) listaCidadao;\r\n    mapping(address => Administrador) listaAdministradores;\r\n\r\n    // O criador do contrato vai ser o owner\r\n    constructor() public {\r\n        owner = msg.sender;\r\n    }\r\n\r\n    // Modifiquei tambem esse modifier para buscar na lista de administradores o sender da chamada\r\n    // como nao tem como saber se um endereço existe em um mapping (tecnicamente \"existem\" todos) uso o atcivo == true para saber se foi \"criado\"\r\n    modifier podeCadastrar() {\r\n        require(listaAdministradores[msg.sender].ativo == bool(true), \"Voce nao pode cadastrar um cidadao.\");\r\n        _;\r\n    }\r\n\r\n    // mesmo que acima\r\n    modifier podeAdicionarDocumento() {\r\n        require(listaAdministradores[msg.sender].ativo == bool(true), \"Voce nao pode adicionar documentos ao historico.\");\r\n        _;\r\n    }\r\n\r\n    // pensei em só poder cadastrar administradores se for o owner\r\n    modifier podeCadastrarAdministrador() {\r\n        require(msg.sender == owner,\"Voce nao pode cadastrar um administrador.\");\r\n        _;\r\n    }\r\n\r\n    // Aqui pensei que só podem ver o hisotrico de documentos um administrador cadastrado pelo usuario como seu administrador\r\n    // dentro de um periodo de uma hora ou o proprio usuario.\r\n    modifier podeGetDocumentos(address cidadao, uint timestamp) {\r\n        require(listaAdministradores[msg.sender].ativo == bool(true) &&\r\n                msg.sender == listaCidadao[cidadao].administrador &&\r\n                uint(timestamp) <= uint(listaCidadao[cidadao].adminTimestamp) + 3600 ||\r\n                msg.sender == cidadao, \"Voce nao pode ver historico.\");\r\n        _;\r\n    }\r\n\r\n    // igual que acima\r\n    modifier podeGetHistoricoVacinas(address cidadao, uint timestamp) {\r\n        require(listaAdministradores[msg.sender].ativo == bool(true) &&\r\n                msg.sender == listaCidadao[cidadao].administrador &&\r\n                uint(timestamp) <= uint(listaCidadao[cidadao].adminTimestamp) + 3600 ||\r\n                msg.sender == cidadao, \"Voce nao pode ver historico.\");\r\n        _;\r\n    }\r\n\r\n    modifier podeAplicarPrimeiraDose(address cidadao) {\r\n        require(listaAdministradores[msg.sender].ativo == bool(true), \"Voce nao pode vacinar.\");\r\n        require(listaCidadao[cidadao].primeiraDose == uint(0),\"Cidadao ja recebeu a primeira dose.\");\r\n        require(listaCidadao[cidadao].cadastrado == bool(true), \"Cidadao nao cadastrado.\");\r\n        _;\r\n    }\r\n\r\n    // Aqui pensei que nao pode aplicar a segunda dose se nao aplicou a primeira ainda e adicionei o segundo require\r\n    modifier podeAplicarSegundaDose(address cidadao) {\r\n        require(listaAdministradores[msg.sender].ativo == bool(true), \"Voce nao pode vacinar.\");\r\n        require(listaCidadao[cidadao].primeiraDose != uint(0),\"Cidadao ainda não recebeu a primeira dose.\");\r\n        require(listaCidadao[cidadao].segundaDose == uint(0),\"Cidadao ja recebeu a segunda dose.\");\r\n        require(listaCidadao[cidadao].cadastrado == bool(true), \"Cidadao nao cadastrado.\");\r\n        _;\r\n    }\r\n\r\n    // metodo para adicionar um administrador e um timestamp no struct do cidadao.\r\n    // Esse admin só vai poder ver os dados do cidadao durante uma hora.\r\n    function permitirAdministrador(address admin, uint timestamp) external {\r\n        listaCidadao[msg.sender].administrador = admin;\r\n        listaCidadao[msg.sender].adminTimestamp = timestamp;\r\n    }\r\n\r\n    // O endereço cria no ap com web3 (web3.eth.accounts.create();)\r\n    // Cadastra um administrador (botei ativo como parametro, mas na pratica vai passar sempre true)\r\n    function cadastrarAdministrador(address admin, string calldata cfm, bool ativo) external podeCadastrarAdministrador(){\r\n        Administrador memory newAdmin = Administrador(ativo, cfm);\r\n        listaAdministradores[admin] = newAdmin;\r\n    }\r\n\r\n    // Aqui cadastra um cidadao. Esse \"address[](0)\" é uma gambiarra que tem que fazer para inicializar um array vazio\r\n    function cadastrarCidadao(address cidadao) external podeCadastrar(){\r\n        Cidadao memory newCidadao = Cidadao(0, 0, true, 0, address(0), 0, new address[](0));\r\n        listaCidadao[cidadao] = newCidadao;\r\n    }\r\n\r\n    // Adiciona ao array documentos o endereço do documento no ipfs\r\n    function addDocumento(address cidadao, address ipfs) external podeAdicionarDocumento() {\r\n        listaCidadao[cidadao].documentos[listaCidadao[cidadao].docCount] = ipfs;\r\n        listaCidadao[cidadao].docCount += 1;\r\n    }\r\n\r\n    // Que merda é trabalhar com arrays em solidity ein. e pra retornar elas pior\r\n    function getDocumentos(address cidadao, uint timestamp) external view podeGetDocumentos(cidadao, timestamp) returns (address  [] memory) {\r\n        return listaCidadao[cidadao].documentos;\r\n    }\r\n\r\n    // Achei que seria bom criar um metodo que retornase o timestamp da duas vacinas ao mesmo tempo em lugar de dois metodos\r\n    function getHistoricoDatasVacinas(address cidadao, uint timestamp) external view podeGetHistoricoVacinas(cidadao, timestamp) returns (uint, uint) {\r\n        return (listaCidadao[cidadao].primeiraDose, listaCidadao[cidadao].segundaDose);\r\n    }\r\n\r\n     function aplicarPrimeiraDose(uint timestamp, address cidadao) external podeAplicarPrimeiraDose(cidadao) {\r\n         listaCidadao[cidadao].primeiraDose = timestamp;\r\n         totalPrimeiraDose += 1;\r\n     }\r\n\r\n     function aplicarSegundaDose(uint timestamp, address cidadao) external podeAplicarSegundaDose(cidadao) {\r\n         listaCidadao[cidadao].segundaDose = timestamp;\r\n         totalSegundaDose += 1;\r\n     }\r\n}",
  "sourcePath": "C:/Users/pablo/TCC/testTruffle/contracts/covid.sol",
  "compiler": {
    "name": "solc",
    "version": "0.5.16+commit.9c3226ce.Emscripten.clang"
  },
  "schemaVersion": "3.4.1",
  "updatedAt": "2021-05-27T01:08:12.654Z",
  "devdoc": {
    "methods": {}
  },
  "userdoc": {
    "methods": {}
  }
}